:02000000412895
:1000080070082000A0008031131E0C281312A301D1
:100018000B1D21280B119C309500A10A0319A20A77
:100028002208073A031D1A28D0302106031D21286B
:10003800A101A201103022008E0620002008F00045
:020048000900AD
:10004A0012001E00F003031D2528F103031D2528B5
:02005A0008009C
:10005C008830210095009C3020009500A0308B004A
:02006C0008008A
:10006E008B170B17C23022009C00200013122100A8
:04007E00131608004D
:1000820001302000A100A201043021008C008E0169
:1000920023008C018E0124008E0121009517372048
:1000A2002E2022000E12FF308C008230FC00DD3048
:1000B200FD00FD0B5A28FC0B5A28000000008C01A1
:1000C2008230FC00DD30FD00FD0B6528FC0B65284D
:0800D2000000000054286C2816
:020000040001F9
:06000E00E00E031F1F3F7E
:00000001FF
