:020000005C287A
:1000080070082000A1007108A0008031131E10287C
:1000180013124230A2008B160B1D3B280B119C308B
:100028009500A40A0319A50A00302506031D1E28F9
:1000380022082406031D252822000E120130200064
:10004800A30003302207F100F2010030F23D250839
:100058007206031D312871082406031D3B2822005F
:100068000E162000A401A5010130A3008B1221085F
:08007800F0002008F10009006E
:1000800012001E00F003031D4028F103031D402849
:02009000080066
:100092008830210095009C3020009500A0308B0014
:0200A200080054
:1000A4008B170B17C23022009C0020001312210072
:0400B4001316080017
:1000B8002000A201A3010130A400A5010430210001
:1000C8008C008E0123008C018E0124008E012100FA
:1000D80095175220492022000E12FF308C008230E2
:1000E800FC00DD30FD00FD0B7728FC0B77280000B5
:1000F80000008C018230FC00DD30FD00FD0B822801
:0C010800FC0B82280000000071288928F0
:020000040001F9
:06000E00E00E031F1F3F7E
:00000001FF
